{
  "contractName": "RealEstate",
  "abi": [
    {
      "anonymous": false,
      "inputs": [
        {
          "indexed": true,
          "internalType": "uint256",
          "name": "id",
          "type": "uint256"
        },
        {
          "indexed": false,
          "internalType": "address",
          "name": "owner",
          "type": "address"
        },
        {
          "indexed": false,
          "internalType": "uint256",
          "name": "price",
          "type": "uint256"
        },
        {
          "indexed": false,
          "internalType": "bool",
          "name": "forSale",
          "type": "bool"
        }
      ],
      "name": "LogProperty",
      "type": "event"
    },
    {
      "inputs": [
        {
          "internalType": "uint256",
          "name": "",
          "type": "uint256"
        }
      ],
      "name": "properties",
      "outputs": [
        {
          "internalType": "address",
          "name": "owner",
          "type": "address"
        },
        {
          "internalType": "uint256",
          "name": "price",
          "type": "uint256"
        },
        {
          "internalType": "bool",
          "name": "forSale",
          "type": "bool"
        }
      ],
      "stateMutability": "view",
      "type": "function",
      "constant": true
    },
    {
      "inputs": [],
      "name": "propertyCount",
      "outputs": [
        {
          "internalType": "uint256",
          "name": "",
          "type": "uint256"
        }
      ],
      "stateMutability": "view",
      "type": "function",
      "constant": true
    },
    {
      "inputs": [
        {
          "internalType": "uint256",
          "name": "_price",
          "type": "uint256"
        }
      ],
      "name": "addProperty",
      "outputs": [],
      "stateMutability": "nonpayable",
      "type": "function"
    },
    {
      "inputs": [
        {
          "internalType": "uint256",
          "name": "_id",
          "type": "uint256"
        }
      ],
      "name": "buyProperty",
      "outputs": [],
      "stateMutability": "payable",
      "type": "function",
      "payable": true
    },
    {
      "inputs": [],
      "name": "logProperties",
      "outputs": [],
      "stateMutability": "nonpayable",
      "type": "function"
    }
  ],
  "bytecode": "0x6080604052600060015534801561001557600080fd5b5061046e806100256000396000f3fe60806040526004361061004a5760003560e01c8063267982e81461004f5780632e681507146100715780636fa830a614610086578063c361a33514610099578063f7b10808146100c4575b600080fd5b34801561005b57600080fd5b5061006f61006a366004610334565b6100f3565b005b34801561007d57600080fd5b5061006f61016c565b61006f610094366004610334565b6101f8565b3480156100a557600080fd5b506100ae610300565b6040516100bb91906103e7565b60405180910390f35b3480156100d057600080fd5b506100e46100df366004610334565b610306565b6040516100bb9392919061034c565b60408051606081018252338152602080820184815260018385018181528154600090815293849052948320935184546001600160a01b0319166001600160a01b0390911617845590518382015592516002909201805460ff1916921515929092179091558154919061016483610407565b919050555050565b60005b6001548110156101f557600081815260208190526040908190208054600182015460028301549351929385937f28e06c8519e099b96ded8260f300ccc09269b748748ad93fd66cf62c94e16125936101da936001600160a01b0390911692909160ff9091169061034c565b60405180910390a250806101ed81610407565b91505061016f565b50565b6000818152602081905260409020600281015460ff1615156001146102385760405162461bcd60e51b815260040161022f906103b0565b60405180910390fd5b60018101544781111561025d5760405162461bcd60e51b815260040161022f9061036f565b803410156102a457600061027134836103f0565b604051909150339082156108fc029083906000818181858888f193505050501580156102a1573d6000803e3d6000fd5b50505b81546040516001600160a01b0390911690819083156108fc029084906000818181858888f193505050501580156102df573d6000803e3d6000fd5b505081546001600160a01b0319163317825550600201805460ff1916905550565b60015481565b6000602081905290815260409020805460018201546002909201546001600160a01b03909116919060ff1683565b600060208284031215610345578081fd5b5035919050565b6001600160a01b0393909316835260208301919091521515604082015260600190565b60208082526021908201527f496e73756666696369656e742062616c616e636520696e20636f6e74726163746040820152601760f91b606082015260800190565b60208082526019908201527f50726f7065727479206973206e6f7420666f722073616c652e00000000000000604082015260600190565b90815260200190565b60008282101561040257610402610422565b500390565b600060001982141561041b5761041b610422565b5060010190565b634e487b7160e01b600052601160045260246000fdfea264697066735822122089d8318cec61a6665e7b7224f64e4c6621bef657f4ec0401539b20bfbab7d9d664736f6c63430008000033",
  "immutableReferences": {},
  "source": "pragma solidity ^0.8.0;\r\n// @custom:oz-upgrades-unsafe-allow _ProxyAdmin\r\n// @custom:oz-upgrades-unsafe-allow _Proxy\r\n// @custom:dev-run-script {../tests/real_estate.test.js}\r\ncontract RealEstate {\r\n  struct Property {\r\n    address owner;\r\n    uint price;\r\n    bool forSale;\r\n  }\r\n\r\n  mapping(uint => Property) public properties;\r\n  uint public propertyCount = 0;\r\n\r\n  function addProperty(uint _price) public {\r\n    properties[propertyCount] = Property(msg.sender, _price, true);\r\n    propertyCount++;\r\n  }\r\n\r\n  // function buyProperty(uint _id) payable public {\r\n  //   Property storage property = properties[_id];\r\n  //   require(property.forSale == true, \"Property is not for sale.\");\r\n  //   require(msg.value >= property.price, \"Insufficient payment.\");\r\n\r\n  //   address payable seller = payable(property.owner);\r\n  //   seller.transfer(msg.value);\r\n  //   property.owner = msg.sender;\r\n  //   property.forSale = false;\r\n  // }\r\n\r\n  function buyProperty(uint _id) payable public {\r\n    Property storage property = properties[_id];\r\n    require(property.forSale == true, \"Property is not for sale.\");\r\n\r\n    uint price = property.price;\r\n    require(address(this).balance >= price, \"Insufficient balance in contract.\");\r\n\r\n    if (msg.value < price) {\r\n        uint refund = price - msg.value;\r\n        payable(msg.sender).transfer(refund);\r\n    }\r\n\r\n    address payable seller = payable(property.owner);\r\n    seller.transfer(price);\r\n    property.owner = msg.sender;\r\n    property.forSale = false;\r\n}\r\n\r\n  function logProperties() public {\r\n  for (uint i = 0; i < propertyCount; i++) {\r\n    Property storage property = properties[i];\r\n    emit LogProperty(i, property.owner, property.price, property.forSale);\r\n  }\r\n}\r\n\r\nevent LogProperty(uint indexed id, address owner, uint price, bool forSale);\r\n\r\n}\r\n\r\n\r\n\r\n// pragma solidity ^0.8.0;\r\n\r\n// contract RealEstate {\r\n//     enum State { ForSale, Sold }\r\n//     State public state;\r\n//     address payable public seller;\r\n//     uint public price;\r\n//     uint public realEstateId;\r\n    \r\n//     struct RealEstateData {\r\n//         address payable buyer;\r\n//         string location;\r\n//         string description;\r\n//     }\r\n    \r\n//     mapping(uint => RealEstateData) public realEstates;\r\n\r\n//     constructor(uint _price) {\r\n//         seller = payable(msg.sender);\r\n//         price = _price;\r\n//         state = State.ForSale;\r\n//     }\r\n    \r\n//     function addRealEstate(uint _realEstateId, string memory _location, string memory _description) public {\r\n//         realEstates[_realEstateId] = RealEstateData(payable(address(0)), _location, _description);\r\n//     }\r\n\r\n//     function buy(uint _realEstateId) public payable {\r\n//         RealEstateData storage realEstate = realEstates[_realEstateId];\r\n//         require(state == State.ForSale, \"Already sold\");\r\n//         require(msg.value == price, \"Incorrect price\");\r\n//         require(realEstate.buyer == address(0), \"Already sold\");\r\n//         realEstate.buyer = payable(msg.sender);\r\n//         state = State.Sold;\r\n//         seller.transfer(msg.value);\r\n//     }\r\n\r\n//     function cancel(uint _realEstateId) public {\r\n//         require(msg.sender == seller, \"Unauthorized\");\r\n//         RealEstateData storage realEstate = realEstates[_realEstateId];\r\n//         require(state == State.ForSale, \"Already sold\");\r\n//         require(realEstate.buyer == address(0), \"Already sold\");\r\n//         state = State.Sold;\r\n//         seller.transfer(address(this).balance);\r\n//     }\r\n// }\r\n",
  "sourcePath": "C:\\Users\\vitos\\Desktop\\dec-r\\contracts\\contracts\\RealEstate.sol",
  "compiler": {
    "name": "solc",
    "version": "0.8.0+commit.c7dfd78e.Emscripten.clang"
  },
  "schemaVersion": "3.4.13",
  "updatedAt": "2023-04-25T17:36:40.511Z",
  "networkType": "ethereum",
  "devdoc": {
    "kind": "dev",
    "methods": {},
    "version": 1
  },
  "userdoc": {
    "kind": "user",
    "methods": {},
    "version": 1
  }
}